:020000040800F2
:1000000000500020210200085D240008612400083F
:1000100065240008692400086D2400080000000021
:10002000000000000000000000000000AD260008F5
:1000300071240008000000007527000875240008DE
:10004000F11B0008F11B0008F11B0008F11B000860
:10005000F11B0008F11B0008F11B0008F11B000850
:10006000F11B0008F11B0008F11B0008F11B000840
:10007000F11B0008F11B0008F11B0008F11B000830
:10008000F11B0008F11B0008F11B0008F11B000820
:10009000F11B0008F11B0008F11B0008F11B000810
:1000A000F11B0008F11B0008F11B0008F11B000800
:1000B000F11B0008F11B0008F11B0008F11B0008F0
:1000C000F11B0008F11B0008F11B0008F11B0008E0
:1000D000F11B0008F11B0008F11B0008F11B0008D0
:1000E000F11B0008F11B0008F11B000800000000D4
:1000F0000000000000000000000000000000000000
:1001000000000000000000005FF808F100B583B0B7
:1001100001F0E6FC304B314A1360314A1360314B39
:10012000314A03E011681960043304322F498B42CD
:10013000F8D32A4B1A682E4B9A4204D1284B1A68DE
:100140002C4B9A4200D0FEE7234B2B4A13602B4ADC
:1001500013602B4B02E000221A600433294A9342B9
:10016000F9D3254B1B6813B9244B1B6803B1FEE779
:1001700001F0C2FC01A8694601F08CFC224B234D22
:10018000ED1AAD10002404E01F4B53F824309847BB
:100190000134A542F8DC1E4B1E4DED1AAD100024B3
:1001A00004E01B4B53F8243098470134A542F8DC97
:1001B0000198009901F0DCFF0546174B174CE41A33
:1001C000A41004E0013C144B53F824309847002C51
:1001D000F8DC284601F03AFCBABADECA000000207A
:1001E0007800002000000020583900087C00002022
:1001F00078563412325476987C0000201810002073
:100200007C0000201C1000204C0300084C03000858
:100210004C0300084C0300084C0300084C03000882
:1002200008B5FFF773FF00BF00BEFEE71EF0040F26
:100230000CBFEFF30880EFF309807146364A104790
:100240002DE9F04182B007468846084C666BA56BE5
:10025000A46A074801F026FCCDF800803846214604
:1002600032462B4601F04CFC00BEFEE700ED00E0FC
:100270004C38000800BEFEE71EF0040F0CBFEFF381
:100280000880EFF309807146244A10472DE9F041B8
:1002900082B007468846084C666BA56BA46A07487F
:1002A00001F000FCCDF800803846214632462B464E
:1002B00001F026FC00BEFEE700ED00E05C3800081F
:1002C0001EF0040F0CBFEFF30880EFF309807146B6
:1002D000134A10472DE9F04182B007468846084C82
:1002E000666BA56BA46A074801F0DCFBCDF80080C3
:1002F0003846214632462B4601F002FC00BEFEE79E
:1003000000ED00E06838000800BEFEE700BEFEE732
:1003100000BEFEE770470000410200088D020008A1
:04032000D5020008FA
:1003240058390008000000207C00002058390008DB
:1003340000000010000000107C0000201C100020B1
:08034400000000100000001091
:10034C0010B5044601F0A2F8064BA3FB002080096F
:10035C0000F044FB4FF0FF302146002200F00CFB74
:10036C00002010BDD34D621008B5074B1A6842F03F
:10037C0010021A60032000F0EDFA0F20FFF7E0FFE7
:10038C0001F042FF002008BD00200240024B1A6819
:10039C0001321A60704700BF80000020014B1868C2
:1003AC00704700BF8000002010B582B00190FFF7AD
:1003BC00F5FF0446FFF7F2FF001B019B9842F9D3AF
:1003CC0002B010BDF0B44B69012202FA03F30268CB
:1003DC00D2F8005225F47C554C6A45EA042444F0CA
:1003EC000104C2F800420468D4F81C52DA431540E8
:1003FC00C4F81C52CC69C4B90468D4F80C5215402A
:10040C00C4F80C5204684D69CE688F8847EA0646DA
:10041C00483544F8356004684D698E680F8847EAA2
:10042C000646483504EBC5046660CC69012C18D12E
:10043C000468D4F80C521D43C4F80C5204684D697E
:10044C000E688F8847EA0646483544F835600468DC
:10045C004D698E688F8947EA0646483504EBC5041A
:10046C0066608C6934B90468D4F804521540C4F839
:10047C00045205E00468D4F804521D43C4F8045235
:10048C000C6934B90468D4F814522A40C4F8142204
:10049C0005E00268D2F814421C43C2F814420A6AFE
:1004AC00012A05D10268D2F81C120B43C2F81C3287
:1004BC000368D3F8002222F00102C3F800220020C6
:1004CC00F0BC704738B50446002800F0918090F8D5
:1004DC00393013F0FF0F04D1002380F8383001F0CD
:1004EC00DBFE022384F8393023681A6822F00202FA
:1004FC001A6023681A6842F001021A60FFF74EFF77
:10050C0005460BE0FFF74AFF401B0A2806D90320DB
:10051C0084F83900002384F8383038BD23685A68D1
:10052C0012F0010FEED05A6812F0010F51D0A269EF
:10053C00012A01D0002200E08022E169012901D1C9
:10054C0042F04002216A012901D142F02002616A85
:10055C00012901D142F01002A16A012901D142F016
:10056C000802E16A012901D142F00402196821F064
:10057C00FC010A431A602368A168E26841EA0200A0
:10058C0022691043626910436268511E40EA0102FD
:10059C00DA6123681A6822F001021A60FFF7FEFE86
:1005AC0005460BE0FFF7FAFE401B0A2806D903208C
:1005BC0084F83900002384F8383038BD23685A6831
:1005CC0012F0010FEED05B6813F0010F03D1002382
:1005DC0002E0002300E001232BB10020E0630123A3
:1005EC0084F8393038BD042384F83930012038BD03
:1005FC00012038BDF8B504460E4690F83830012B72
:10060C0000F0D280012380F8383090F83930DBB21A
:10061C00222B03D1322380F8393002E0122380F8E8
:10062C00393023689A6812F0806F09D19A6812F0F9
:10063C00006F07D19A6812F0805F05D0022504E0A4
:10064C00002502E0012500E00425042D00F0A48023
:10065C0005F118021201995801F001019950236B10
:10066C009A685AB9216805F11802120188581F6856
:10067C00DB6843EA475303438B500FE0D4F800E0A8
:10068C0005F1180109015EF80170586842EAC002D0
:10069C00DB681A4347EA02034EF80130236B1A69F0
:1006AC0002F00F021A61226805F118031B011A44AB
:1006BC00516821F00F01516022681A445068216B77
:1006CC000969014351602068226BD77D917D090433
:1006DC0041EA0761577D41EA0721127D0A4329014E
:1006EC000844C0F888212068226B92F81BE0977EA2
:1006FC003F0447EA0E6792F819E047EA0E27127E8C
:10070C003A430144C1F88C212268D15841F00101CF
:10071C00D150FFF743FE07460FE0B6F1FF3F0CD078
:10072C0026B1FFF73BFEC01BB04206D9032084F86C
:10073C003900002384F83830F8BD3DB923689B6834
:10074C001A4A13409B1A18BF012310E0012D07D140
:10075C0023689B6816490B405B1A18BF012306E0FF
:10076C0023689B68134A13409B1A18BF0123002B64
:10077C00D3D194F83930DBB2322B06D1222384F852
:10078C003930002384F8383002E0012384F8393002
:10079C00002084F83800F8BD042384F83930002395
:1007AC0084F838300120F8BD0220F8BD03000004A5
:1007BC000003000800000310F8B504460D46164669
:1007CC0090F83830012B00F0BE80012380F83830CF
:1007DC0090F83930DBB2122B03D1322380F8393048
:1007EC0002E0222380F83930FFF7D8FD07460FE0EE
:1007FC00B6F1FF3F0CD026B1FFF7D0FDC01BB042C5
:10080C0006D9032084F83900002384F83830F8BD69
:10081C003DB92368DB6813F0030F14BF00230123D9
:10082C0006E023681B6913F0030F14BF0023012398
:10083C00002BDDD1636B226805F11B0109015258B5
:10084C0002F004029A60636B9A683AB9226805F167
:10085C001B0109015258520D1A6006E0226805F17D
:10086C001B0109015258D2085A60626B216805F1CC
:10087C001B031B01C95801F00201D160626B216896
:10088C001944496801F00F011161626B21680B4436
:10089C005B68C3F30723D361626B21682B01194496
:1008AC00D1F8B8111175626B21681944D1F8B811DF
:1008BC00090A5175626B21681944D1F8B811090CF9
:1008CC009175626B21681944D1F8B811090ED17574
:1008DC00626B2168194401F5DC7149681176626B11
:1008EC002168194401F5DC714968090A5176626B7B
:1008FC002168194401F5DC714968090C9176626B29
:10090C0021680B4403F5DC735B681B0ED3762DB9A1
:10091C002368DA6842F02002DA6004E023681A697E
:10092C0042F020021A6194F83930DBB2322B03D139
:10093C00122384F8393002E0012384F83930002086
:10094C0084F83800F8BD0220F8BD00BF90F83900DB
:10095C00704700BF00F00700064AD36823F4E06339
:10096C001B041B0C43EA002343F0BF6343F4003326
:10097C00D360704700ED00E030B4164BDB68C3F376
:10098C000223C3F10705042D28BF04251C1D062CCA
:10099C0001D9033B00E00023012404FA05F5013DD5
:1009AC002940994004FA03F3013B1A400A430028FA
:1009BC0006DA00F00F001201D2B2074B1A5407E00E
:1009CC001201D2B200F1604000F5614080F80023C2
:1009DC0030BC704700ED00E014ED00E00138B0F1E0
:1009EC00807F0AD2064B5860F021064A82F8231009
:1009FC000020986007221A6070470120704700BFE2
:100A0C0010E000E000ED00E0042805D1054B1A6869
:100A1C0042F004021A607047024B1A6822F004027A
:100A2C001A60704710E000E0F0B482B00026334644
:100A3C00D8E001249C400A682240A24240F0D180B8
:100A4C004D68122D2DD00BD8022D27D003D85DB3B5
:100A5C00012D1ED035E0032D30D0112D1BD030E0F0
:100A6C00634FBD4220D008D8A7F58017BD421BD0DC
:100A7C0007F58037BD4224D116E05E4FBD4213D03E
:100A8C0007F58037BD420FD0A7F58017BD4218D1AE
:100A9C000AE0CE6815E0CE68043612E0CE6808365F
:100AAC000FE0CE680C360CE08D684DB1012D02D1F3
:100ABC000461082605E04461082602E0002600E0F7
:100ACC000426FF2A01D8044600E0041DFF2A01D8A1
:100ADC009D0002E0A3F10805AD0027684FF00F0C54
:100AEC000CFA05FC27EA0C0706FA05F53D432560D0
:100AFC004C6814F0805F74D03F4CA56945F001053B
:100B0C00A561A46904F001040194019C9C08A71C34
:100B1C003A4D55F8277003F00305AD004FF00F0C5C
:100B2C000CFA05FC27EA0C07DFF8D8C0604517D093
:100B3C000CF5806C604510D00CF5806C604509D0CC
:100B4C000CF5806C604502D14FF0030C0AE04FF0BD
:100B5C00040C07E04FF0020C04E04FF0010C01E034
:100B6C004FF0000C0CFA05F53D430234234F47F8C7
:100B7C0024504C6814F4803F04D0214C2568154354
:100B8C00256004E01E4C256825EA020525604C68AA
:100B9C0014F4003F04D01A4C65681543656004E0FA
:100BAC00174C656825EA020565604C6814F4801FD3
:100BBC0004D0134CA5681543A56004E0104CA5683F
:100BCC0025EA0205A5604C6814F4001F04D00C4CF7
:100BDC00E5682A43E26004E0094CE56825EA020274
:100BEC00E26001330F2B7FF624AF02B0F0BC7047EC
:100BFC0000002110000031100010024000000140E4
:100C0C0000040140000801400AB101617047090469
:100C1C0001617047C3685940C160704730B583B0FB
:100C2C000446036813F0010F00F09980B44B5B6825
:100C3C0003F00C03042B0AD0B14B5B6803F00C03DC
:100C4C00082B1BD1AE4B5B6813F4803F16D04FF4CE
:100C5C00003393FAA3F3AA4B1A684FF4003393FAB8
:100C6C00A3F3B3FA83F303F01F0322FA03F313F095
:100C7C00010F74D06368002B71D1A5E26368B3F5E2
:100C8C00803F08D103F1804303F588331A6842F49E
:100C9C0080321A6026E063B903F1804303F5043314
:100CAC001A6822F480321A601A6822F480221A60C0
:100CBC0018E0B3F5A02F0CD103F18043A3F53C331E
:100CCC001A6842F480221A601A6842F480321A6060
:100CDC0008E08B4B1A6822F480321A601A6822F4EE
:100CEC0080221A606368EBB1FFF758FB054605E0FC
:100CFC00FFF754FB401B642800F268824FF400336A
:100D0C0093FAA3F37E4B1A684FF4003393FAA3F3D0
:100D1C00B3FA83F303F01F0322FA03F313F0010F6A
:100D2C00E6D01CE0FFF73AFB054605E0FFF736FB83
:100D3C00401B642800F24C824FF4003393FAA3F367
:100D4C006F4B1A684FF4003393FAA3F3B3FA83F39F
:100D5C0003F01F0322FA03F313F0010FE6D123680B
:100D6C0013F0020F00F09080654B5B6813F00C0FD2
:100D7C000AD0634B5B6803F00C03082B27D1604B44
:100D8C005B6813F4803F22D1022393FAA3F35C4BEC
:100D9C001A68022393FAA3F3B3FA83F303F01F0345
:100DAC0022FA03F313F0010F03D02369012B40F057
:100DBC001182534B196821F0F8016269F82090FAFE
:100DCC00A0F0B0FA80F082400A431A605CE023691C
:100DDC009BB3012292FAA2F3B3FA83F39B0003F1C3
:100DEC00844303F584031A60FFF7D8FA054605E03F
:100DFC00FFF7D4FA401B022800F2EE81022393FA8B
:100E0C00A3F33F4B1A68022393FAA3F3B3FA83F3C9
:100E1C0003F01F0322FA03F313F0010FE8D0384B51
:100E2C00196821F0F8016269F82090FAA0F0B0FA84
:100E3C0080F082400A431A6026E0012393FAA3F360
:100E4C00B3FA83F39B0003F1844303F5840300227C
:100E5C001A60FFF7A3FA054605E0FFF79FFA401B5F
:100E6C00022800F2BB81022393FAA3F3244B1A68E5
:100E7C00022393FAA3F3B3FA83F303F01F0322FACA
:100E8C0003F313F0010FE8D1236813F0080F53D0CC
:100E9C00A3693BB3012393FAA3F1B1FA81F1194A87
:100EAC0042F82130FFF77AFA054605E0FFF776FAAB
:100EBC00401B022800F29481022393FAA3F293FAC6
:100ECC00A3F20F4A526A93FAA3F3B3FA83F303F033
:100EDC001F0322FA03F313F0010FE7D00120FFF7F1
:100EEC0063FA29E0012292FAA2F2B2FA82F200210C
:100EFC00044B43F82210FFF751FA05460AE000BFF5
:100F0C000010024080044242FFF748FA401B0228BE
:100F1C0000F26881022393FAA3F293FAA3F2BB4A7C
:100F2C00526A93FAA3F3B3FA83F303F01F0322FA82
:100F3C0003F313F0010FE7D1236813F0040F00F053
:100F4C009F80B24BDA6942F08052DA61DB6903F0C0
:100F5C0080530193019BAE4B1A6842F480721A6065
:100F6C00FFF71CFA054605E0FFF718FA401B64284A
:100F7C0000F23A81A64B1B6813F4807FF4D0E3682F
:100F8C00012B05D1A14B1A6A42F001021A6222E030
:100F9C0063B903F1804303F504331A6A22F00102AA
:100FAC001A621A6A22F004021A6214E0052B09D1A3
:100FBC00964B1A6A42F004021A621A6A42F0010253
:100FCC001A6208E0914B1A6A22F001021A621A6A3C
:100FDC0022F004021A62E3684BB3FFF7DFF905460F
:100FEC0007E0FFF7DBF9401B41F28833984200F22F
:100FFC00FD80022393FAA3F293FAA3F3B3FA83F3DB
:10100C0043F040035B09022B02D1804B1A6A01E0CA
:10101C007E4B5A6A022393FAA3F3B3FA83F303F0D9
:10102C001F0322FA03F313F0010FDAD028E0FFF7C5
:10103C00B5F9054607E0FFF7B1F9401B41F28833DB
:10104C00984200F2D580022393FAA3F293FAA3F309
:10105C00B3FA83F343F040035B09022B02D16B4BD1
:10106C001A6A01E0694B5A6A022393FAA3F3B3FAA2
:10107C0083F303F01F0322FA03F313F0010FDAD109
:10108C00E369002B00F0B680604A526802F00C0253
:10109C00082A00F0B180022B6BD14FF0807393FAC9
:1010AC00A3F3B3FA83F39B0003F1844303F58403A6
:1010BC0000221A60FFF772F9054605E0FFF76EF99A
:1010CC00401B022800F29A804FF0007393FAA3F3AE
:1010DC004E4B1A684FF0007393FAA3F3B3FA83F3F1
:1010EC0003F01F0322FA03F313F0010FE6D1236A76
:1010FC00B3F5803F09D103F1804303F58833596878
:10110C0021F40031A2680A435A60404B596821F41B
:10111C007411206A626A02430A435A604FF080736A
:10112C0093FAA3F3B3FA83F39B0003F1844303F51F
:10113C00840301221A60FFF731F9044604E0FFF73B
:10114C002DF9001B02285BD84FF0007393FAA3F320
:10115C002E4B1A684FF0007393FAA3F3B3FA83F390
:10116C0003F01F0322FA03F313F0010FE7D0002062
:10117C0049E04FF0807393FAA3F3B3FA83F39B0027
:10118C0003F1844303F5840300221A60FFF706F988
:10119C00044604E0FFF702F9001B022832D84FF096
:1011AC00007393FAA3F3194B1A684FF0007393FA78
:1011BC00A3F3B3FA83F303F01F0322FA03F313F040
:1011CC00010FE7D100201EE001201CE003201AE0F3
:1011DC00032018E0012016E0032014E0032012E0A5
:1011EC00032010E003200EE003200CE003200AE0B3
:1011FC00032008E0002006E0012004E0032002E0C8
:10120C00032000E0032003B030BD00BF00100240FB
:10121C000070004030B486B01F4D02AC286869687D
:10122C00AA68EB680FC42B8AADF804301B4B5B68C3
:10123C0003F00C02082A2AD103F470114FF4701237
:10124C0092FAA2F2B2FA82F221FA02F206A90A4446
:10125C0012F8102C13F4803F15D0104B596801F480
:10126C0000314FF4003393FAA3F3B3FA83F321FA6A
:10127C0003F306A90B4413F8143C0948B0FBF3F034
:10128C0002FB00F004E0074800FB02F000E0044819
:10129C0006B030BC704700BF1C370008001002407D
:1012AC0000127A0000093D0070B504460D46734BE0
:1012BC001B6803F007038B420BD2704B1A6822F0A9
:1012CC0007020A431A601B6803F007038B4240F0C5
:1012DC00C480236813F0020F06D0694B596821F0C3
:1012EC00F001A2680A435A60236813F0010F75D00D
:1012FC006368012B13D14FF4003292FAA2F2604AC8
:10130C0011684FF4003292FAA2F2B2FA82F202F0B1
:10131C001F0221FA02F212F0010F27D19FE0022BDB
:10132C0013D14FF0007292FAA2F2554A11684FF0A5
:10133C00007292FAA2F2B2FA82F202F01F0221FAC1
:10134C0002F212F0010F11D18BE0022292FAA2F2FA
:10135C004B4A1168022292FAA2F2B2FA82F202F01D
:10136C001F0221FA02F212F0010F7CD0444A51689C
:10137C0021F003010B435360FFF710F80646636836
:10138C00012B0ED106E0FFF709F8801B41F28833E0
:10139C0098426AD83A4B5B6803F00C03042BF2D1E9
:1013AC001CE0022B15D106E0FEF7F8FF801B41F282
:1013BC00883398425BD8324B5B6803F00C03082BE4
:1013CC00F2D10BE0FEF7EAFF801B41F28833984222
:1013DC004FD82B4B5B6813F00C0FF3D1274B1B68CA
:1013EC0003F00703AB420AD9244B1A6822F0070218
:1013FC002A431A601B6803F00703AB423BD12368F6
:10140C0013F0040F06D01E4B596821F4E061E2681A
:10141C000A435A60236813F0080F07D0184B5A6818
:10142C0022F46052216942EAC1025A60FFF7F2FECF
:10143C00134B5A6802F0F002F02393FAA3F3B3FAB9
:10144C0083F322FA03F30F4AD35CD8400E4B186097
:10145C000F20FEF775FF002070BD012070BD01202C
:10146C0070BD012070BD012070BD032070BD032034
:10147C0070BD032070BD012070BD00BF0020024074
:10148C0000100240783800080C000020014B18684E
:10149C00704700BF0C00002008B5FFF7F7FF084BA2
:1014AC005A6802F4E0624FF4E06393FAA3F3B3FAE0
:1014BC0083F322FA03F3034AD35CD84008BD00BF80
:1014CC00001002408838000808B5FFF7DFFF084B12
:1014DC005A6802F460524FF4605393FAA3F3B3FAD0
:1014EC0083F322FA03F3034AD35CD84008BD00BF50
:1014FC00001002408838000810B5044600283AD085
:10150C0090F8513013F0FF0F01D100F0FBFE0223D5
:10151C0084F8513023681A6822F040021A6023685C
:10152C006168A2681143E268114322691143626940
:10153C000A43A16901F400711143E2691143226A63
:10154C001143A26A0A431A602368618B01F00401FB
:10155C00626A0A435A602368E26A1A612368DA698C
:10156C0022F40062DA610020044B187060650123DC
:10157C0084F8513010BD012010BD00BF8400002044
:10158C002DE9F84304460368196921F44051C268F7
:10159C000A431A61826803691A43436942EA0301E8
:1015AC000268D36823F4B05323F00C030B43D360CD
:1015BC000368596921F4407182690A435A610668CB
:1015CC005A4B9E4258D1FFF77FFF00EB800000EB97
:1015DC00800063689B00B0FBF3F9554DA5FB09290E
:1015EC004FEA59194FEA0919FFF76EFF00EB80001B
:1015FC0000EB800063689B00B0FBF3F8FFF764FF1F
:10160C0000EB800000EB800063689B00B0FBF3F301
:10161C00A5FB03235B09642707FB13884FEA081813
:10162C0008F13208A5FB08384FEA581808F0F00802
:10163C00C844FFF749FF00EB800000EB80006368B3
:10164C009B00B0FBF3F9FFF73FFF00EB800000EBD2
:10165C00800063689B00B0FBF3F3A5FB03235B09DD
:10166C0007FB13973F013237A5FB0735C5F343152D
:10167C004544B560BDE8F883FFF70EFF00EB800032
:10168C0000EB800063689B00B0FBF3F9284DA5FBD1
:10169C0009294FEA59194FEA0919FFF7FDFE00EB2A
:1016AC00800000EB800063689B00B0FBF3F8FFF751
:1016BC00F3FE00EB800000EB800063689B00B0FB46
:1016CC00F3F0A5FB00304009642707FB10884FEAB4
:1016DC00081808F13208A5FB08284FEA581808F03A
:1016EC00F008C844FFF7D8FE00EB800000EB800048
:1016FC0063689B00B0FBF3F9FFF7CEFE00EB8000B4
:10170C0000EB800063689B00B0FBF3F0A5FB00309E
:10171C00400907FB10973F013237A5FB0725C5F39E
:10172C0043154544B560BDE8F88300BF003801405F
:10173C001F85EB512DE9F04106460C4690461D469F
:10174C00FEF72CFE0746B8F1000F26D053E0B5F19A
:10175C00FF3F22D025B1FEF721FEC01BA8421CD9A9
:10176C003368DA6822F08002DA603368DA6822F0D3
:10177C002002DA603368DA6822F48072DA60336847
:10178C005A6922F001025A61012386F8393000238C
:10179C0086F838300320BDE8F08133681B6823409D
:1017AC00A342D4D10020BDE8F081B5F1FF3F22D097
:1017BC0025B1FEF7F3FDC01BA8421CD93368DA68CB
:1017CC0022F08002DA603368DA6822F02002DA60F4
:1017DC003368DA6822F48072DA6033685A6922F06E
:1017EC0001025A61012386F83930002386F838301B
:1017FC000320BDE8F08133681B682340A342D4D09A
:10180C000020BDE8F08100BF10B5044648B390F845
:10181C00393013F0FF0F04D1002380F8383000F07A
:10182C00C5FD022384F839302368DA6822F40052AB
:10183C00DA602046FFF7A4FE23681A6922F490426E
:10184C001A6123685A6922F02A025A612368DA68FD
:10185C0042F40052DA600020E063012384F839304E
:10186C0010BD012010BD00BF70B504460D461E46CC
:10187C0090F83930DBB2012B01D0222B59D1002D3D
:10188C0059D0002A59D094F83830012B57D0012365
:10189C0084F838300023E36394F83930DBB2222B20
:1018AC0003D1322384F8393002E0122384F8393022
:1018BC00A284E28423E0013AE284A268B2F5805F5C
:1018CC0012D12046802100223346FFF733FF002837
:1018DC0037D123682A88C2F308025A6023690BB9EE
:1018EC0002350CE001350AE0204680210022334607
:1018FC00FFF720FF38BB23682A785A600135E28C49
:10190C00002AD8D1204640213346FFF713FF034667
:10191C00D8B994F83920D2B2322A03D1222284F8D1
:10192C00392002E0012284F83920002284F8382082
:10193C000CE002230AE0012308E0012306E0022365
:10194C0004E0032302E0032300E00323184670BDE8
:10195C0070B504460D461E4690F83930DBB2012BAB
:10196C0001D0122B5FD1002D5FD0002A5FD094F8EC
:10197C003830012B5DD0012384F838300023E36329
:10198C0094F83930DBB2122B03D1322384F839307E
:10199C0002E0222384F83930A285E28530E0013A56
:1019AC00E285A268B2F5805F16D120462021002284
:1019BC003346FFF7BFFE00283DD1236933B92368B6
:1019CC005B68C3F3080325F8023B19E023685B68E6
:1019DC00DBB225F8013B13E02046202100223346E0
:1019EC00FFF7A8FE48BB236923B923685B682B70FB
:1019FC00013505E023685B6803F07F032B7001352C
:101A0C00E28D002ACBD194F83930DBB2322B03D1E2
:101A1C00122384F8393002E0012384F83930002095
:101A2C0084F8380070BD022070BD012070BD01200B
:101A3C0070BD022070BD032070BD032070BD00BFBF
:101A4C00FEE700BF08B50D4B1B6813B90C4A0B4BD6
:101A5C001A600A4B1B68033020F003001844094A33
:101A6C00904206D901F00EFA0C2303604FF0FF30C0
:101A7C0008BD024A1060184608BD00BF880000204F
:101A8C001C100020004C002001230360014B0B6054
:101A9C00704700BF040000200FB400B583B004AB46
:101AAC0053F8042B01930848802101F01FFD011EFF
:101ABC0003DD054800F00AF80146084603B05DF85E
:101ACC0004EB04B0704700BF900000204FF0FF30D3
:101ADC00704700BF08B500F087F8024B024A9A60C5
:101AEC0008BD00BF00ED00E00000000808B500F0E4
:101AFC00A1F808BDF8B504460D4617461E46264803
:101B0C00FFF7CAFF25482168FFF7C6FF2448616824
:101B1C00FFF7C2FF2348A168FFF7BEFF2248E16828
:101B2C00FFF7BAFF21482169FFF7B6FF204861692A
:101B3C00FFF7B2FF1F48A169FFF7AEFF1E48E1692E
:101B4C00FFF7AAFF1D48FFF7A7FF1D482946FFF71F
:101B5C00A3FF1C4CE16A1C48FFF79EFF216B1B483E
:101B6C00FFF79AFFE16B1A48FFF796FF15F0800F0D
:101B7C0003D018483946FFF78FFF15F4004F03D0F8
:101B8C0015483146FFF788FF1448FFF785FF1448C6
:101B9C000699FFF781FFF8BD303700084037000881
:101BAC00503700086037000870370008803700088D
:101BBC0090370008A0370008B0370008C03700087D
:101BCC00CC37000800ED00E0DC370008EC370008EB
:101BDC00FC3700080C3800081C3800082C380008AA
:101BEC0034380008FFF7FEBF0F4B1A6842F00102B1
:101BFC001A6059680D4A0A405A601A6822F08472B9
:101C0C0022F480321A601A6822F480221A605A6810
:101C1C0022F4FE025A604FF41F029A604FF00062E9
:101C2C00034B9A60704700BF001002400000FFF8A1
:101C3C0000ED00E01F4B5B6803F00C03042B06D097
:101C4C00082B08D03BBB1C4A1C4B1A6026E01A4AD6
:101C5C001A4B1A6022E0174B5A685B68C2F3834236
:101C6C00023213F4803F05D1154B03FB02F2134BE8
:101C7C001A6013E00F4B5B6813F4003F05D0104B58
:101C8C0003FB02F20D4B1A6008E00B4B03FB02F254
:101C9C000A4B1A6002E0084A084B1A60054B5B6855
:101CAC00C3F30313074AD15C044B1A68CA401A6089
:101CBC00704700BF0010024000127A000C00002098
:101CCC0000093D00783800082DE9F04188B0284B18
:101CDC009A6942F010029A619A6902F0100201921C
:101CEC00019A9A6942F004029A619A6902F004021C
:101CFC000292029A9A6942F008029A619B6903F077
:101D0C0008030393039BDFF8748040464FF4604153
:101D1C000022FEF779FF174F384613210022FEF7F9
:101D2C0073FF154E304641F203010022FEF76CFFA3
:101D3C004FF4604304930125059502240794404613
:101D4C0004A9FEF771FE13230493059507943846F6
:101D5C0004A9FEF769FE41F2030304930595079469
:101D6C00304604A9FEF760FE08B0BDE8F08100BF64
:101D7C000010024000080140000C0140001001401E
:101D8C0030B587B0314B1A6B7B2111751B6B7D22E3
:101D9C005A752E4800216422FEF70EFD80B92B4B9C
:101DAC005B6B68462A495A7D01F07CF8684601F065
:101DBC009DF882B2274869464FF0FF33FFF754FD78
:101DCC00244805A901226423FFF7C2FD9DF91430B4
:101DDC00202B36D11D484FF47A71FEF70BFCB0B1B5
:101DEC001D4801F083F81B4D82B228461B494FF069
:101DFC00FF33FFF739FD1A4C204601F077F882B219
:101E0C00284621464FF0FF33FFF72EFD16E0154C08
:101E1C00204601F06BF80F4D82B2284621464FF058
:101E2C00FF33FFF721FD0E4C204601F05FF882B224
:101E3C00284621464FF0FF33FFF716FD2D238DF872
:101E4C00143009480121FEF7E5FEA2E7000F00203F
:101E5C0090380008400F002094380008A83800087B
:101E6C00BC380008C038000800080140FEE700BF7D
:101E7C0008B50E480E4B03604FF482734360002389
:101E8C008360C360036143614FF400728261C3617C
:101E9C000362436283620A23C362FFF72DFB20B106
:101EAC00044840F2B511FFF7E1FF08BDA80E002071
:101EBC0000380040D438000808B50E480E4B0360BB
:101ECC004FF48273436000238360C36003614361FA
:101EDC004FF400728261C3610362436283620A231E
:101EEC00C362FFF709FB20B104484FF4CF71FFF731
:101EFC00BDFF08BD800F002000300140D438000821
:101F0C0008B50B480B4B03600B4B436000238360FD
:101F1C00C36003610C2242618361C361FFF774FCEF
:101F2C0020B106484FF4E471FFF7A0FF08BD00BFD5
:101F3C00400F00200038014020A10700D4380008D1
:101F4C0008B50B480B4B03600B4B436000238360BD
:101F5C00C36003610C2242618361C361FFF754FCCF
:101F6C0020B1064840F2DB11FFF780FF08BD00BF2F
:101F7C00D80F00200044004020A10700D4380008EE
:101F8C0008B50C480C4B036010234360002383609E
:101F9C00C360036143618361C36103624362836213
:101FAC00C362FEF78FFA20B1044840F28711FFF7A5
:101FBC005DFF08BD000F002000640040D43800080D
:101FCC0010B58AB04548464B0360464B0363464BFD
:101FDC00436300238361C361036243628362C36210
:101FEC004FF080428260C3604FF4A02303614FF432
:101FFC00E003436102234360FEF764FA20B13B48DF
:10200C0040F22911FFF732FF0023059306930122BA
:10201C0007920093019302930393049308920E2367
:10202C0009932E486946FEF7CDF920B12F4840F2AE
:10203C003B11FFF71BFF2948036B11221A60026B3F
:10204C000023D360026B9360036B02221A61036B53
:10205C00CA221A75036BFE225A750A21FEF7CAFAB8
:10206C0020B1224840F24911FFF700FF1B48FEF750
:10207C006DFC012825D1194800210A22FEF79CFB92
:10208C00044620B1194840F25511FFF7EFFE1348F2
:10209C00FEF75CFC012816D1104B5B6B1A68112AF9
:1020AC0013D19A689AB91A69022A12D11A7D0E4B69
:1020BC005B7D43EA02224CF6FE239A420AD00124AD
:1020CC0008E0012406E0012404E0012402E00124DC
:1020DC0000E0012420460AB010BD00BF000F002014
:1020EC00006400403401002010010020D4380008A6
:1020FC0000B591B00223069301230A9310230B938E
:10210C0000230D9306A8FEF789FD18B11348F221A0
:10211C00FFF7ACFE0F230193002102910391049170
:10212C00059101A8FFF7C0F820B10C484FF480715D
:10213C00FFF79CFEFFF7AAF9094BA3FB00208009CF
:10214C00FEF74CFC0420FEF75FFC4FF0FF300F2134
:10215C000022FEF711FC11B05DF804FBD438000826
:10216C00D34D621000B585B0FEF7FEF8FFF7C0FF47
:10217C00FFF7AAFDFFF77CFEFFF79EFEFFF7C0FE00
:10218C00FFF7DEFEFFF7FCFEFFF71AFFB8B9184C9D
:10219C00204600F0ABFE174D82B2284621464FF088
:1021AC00FF33FFF761FB144C204600F09FFE82B218
:1021BC00284621464FF0FF33FFF756FB0AE00F4C41
:1021CC00204600F093FE82B20A4821464FF0FF33BE
:1021DC00FFF74AFB0323009300230193029303931D
:1021EC0007480849802200F019FC00F09DFCFEE72E
:1021FC00E4380008400F0020BC380008F83800080C
:10220C008D1D00081039000800B583B0204B9A6969
:10221C0042F001029A619B6903F001030193019B57
:10222C000320FEF797FB6FF00B0000210A46FEF728
:10223C00A3FB6FF00A0000210A46FEF79DFB6FF02E
:10224C00090000210A46FEF797FB6FF004000021FD
:10225C000A46FEF791FB6FF0030000210A46FEF7D9
:10226C008BFB6FF001000F210022FEF785FB4FF076
:10227C00FF300F210022FEF77FFB064B5A6822F03D
:10228C00E06242F080625A6003B05DF804FB00BF6C
:10229C00001002400000014010B586B00268164BD9
:1022AC009A4227D103F5D633DA6942F00072DA612B
:1022BC00DB6903F000730193019B4FF4807302936D
:1022CC000023039304930D4C204602A9FEF7ACFBAC
:1022DC004FF40073029302230393032305932046C8
:1022EC0002A9FEF7A1FB064B5A6822F4C04242F445
:1022FC0080425A6006B010BD00640040000C0140E2
:10230C000000014010B586B00368234A93421ED1E9
:10231C00224B9A6942F480529A619B6903F4805370
:10232C000093009BA02302930223039303230593A2
:10233C001B4C204602A9FEF777FB40230293002397
:10234C0003930493204602A9FEF76EFB22E0154A84
:10235C0093421FD1114BDA6942F48042DA61DB6996
:10236C0003F480430193019B4FF420430293022317
:10237C000393032305930C4C204602A9FEF754FB50
:10238C004FF480430293002303930493204602A945
:10239C00FEF74AFB06B010BD0030014000100240B1
:1023AC000008014000380040000C014010B586B018
:1023BC000368234A934220D1224B9A6942F480420B
:1023CC009A619B6903F480430093009B4FF4007364
:1023DC00029302230393032305931B4C204602A96B
:1023EC00FEF722FB4FF480630293002303930493C4
:1023FC00204602A9FEF718FB20E0144A93421DD197
:10240C00104BDA6942F40032DA61DB6903F4003311
:10241C000193019B0423029302230393032305934B
:10242C00094C204602A9FEF7FFFA08230293002369
:10243C0003930493204602A9FEF7F6FA06B010BDEA
:10244C0000380140001002400008014000440040E8
:10245C00704700BFFEE700BFFEE700BFFEE700BF0E
:10246C00FEE700BF704700BF08B5FDF78FFF00F017
:10247C000BFA08BD124B13F0070F07D0D91D21F032
:10248C000701C1F540621A440B4601E04FF440626B
:10249C000C480360002141601A44083A22F00702FC
:1024AC000948026051601160D11A59601A60074BDB
:1024BC001960074B19604FF00042064B1A607047C9
:1024CC00600100205801002054010020640D002000
:1024DC0050010020600D002010B4134A00E01A4691
:1024EC0013688342FBD351685418844203D140686B
:1024FC0001445160104641684418A3420CD10B4C66
:10250C002468A34206D05B681944416013681B68B9
:10251C00036002E0046000E00360824200D01060BF
:10252C005DF8044B704700BF580100205401002097
:10253C0070B5054600F026FB2D4B1B680BB9FFF759
:10254C0099FF2C4B1B681D4241D135B1083515F054
:10255C00070F02D025F007050835002D39D0264B82
:10256C001B689D4237D8254A146801E022461C4658
:10257C006368AB4202D22368002BF7D11C4B1B685B
:10258C009C422AD0166808362368136063685B1B6C
:10259C00102B0AD9601910F0070F02D000F09EF82A
:1025AC00FEE743606560FFF797FF626812490B68AE
:1025BC009B1A0B60124909688B4201D210490B60BF
:1025CC000C4B1B681A4362600023236006E0002654
:1025DC0004E0002602E0002600E0002600F066FB86
:1025EC0016F0070F02D000F079F8FEE7304670BD08
:1025FC0054010020600D00205001002058010020E3
:10260C00640D002038B5044620B3A0F1080550F83D
:10261C00043C114A126813EA020002D100F05EF881
:10262C00FEE754F8081C11B100F058F8FEE788B129
:10263C0081B923EA020344F8043C00F0A3FA54F8ED
:10264C00041C064B1A680A441A602846FFF744FF1C
:10265C0000F02CFB38BD00BF600D002050010020A5
:10266C0006480068006880F3088862B661B6BFF35C
:10267C004F8FBFF36F8F00DF00BF000008ED00E04D
:10268C004FF0807340F8043C40F8081C034B40F8B2
:10269C000C3C40F8202C4038704700BFF92600084D
:1026AC00074B19680868B0E8F00F80F30988BFF38E
:1026BC006F8F4FF0000080F311884EF00D0E7047B5
:1026CC00280E00204FF08052034B1A60BFF34F8F3F
:1026DC00BFF36F8F704700BF04ED00E0EFF3118084
:1026EC004FF0500181F311887047002008B5054B5D
:1026FC001B68B3F1FF3F02D0FFF7F0FFFEE7FFF7D7
:10270C00EDFFFEE71000002008B5FFF7E7FF094AD0
:10271C00136801331360BFF34F8FBFF36F8F012B1F
:10272C0007D1054B1B6813F0FF0F02D0FFF7D6FF44
:10273C00FEE708BD1000002004ED00E080F31188D6
:10274C00704700BF08B5074B1B6813B9FFF7C6FFEE
:10275C00FEE7013B034A136013B90020FFF7EEFFBD
:10276C0008BD00BF10000020EFF30980BFF36F8F8E
:10277C000D4B1A6820E9F00F10602DE908404FF05E
:10278C00500080F3118800F035FB4FF0000080F30F
:10279C001188BDE8084019680868B0E8F00F80F3AC
:1027AC000988BFF36F8F7047280E002008B5FFF71C
:1027BC0095FF00F0EFF918B14FF08052024B1A6000
:1027CC000020FFF7BBFF08BD04ED00E0064B1A68C4
:1027DC00064BA3FB02129209013A054B1A60072221
:1027EC00043B1A60704700BF0C000020D34D6210F0
:1027FC0014E000E000B583B01F4B1A78D2B20192FE
:10280C00FF221A701B78DBB28DF803309DF8032081
:10281C0002F05002194B1A700722194B1A6009E08A
:10282C00174B1A68013A1A609DF803305B00DBB253
:10283C008DF803309DF8033013F0800FF0D1104B5E
:10284C001A68120202F4E0621A60019AD2B20A4BC0
:10285C001A7003F512631A6842F470021A601A684F
:10286C0042F070421A60FFF7B1FF0022054B1A606C
:10287C00FFF7F6FEFFF73AFF00E400E0680D0020DA
:10288C006C0D00201000002008B500F0EBFA0128B8
:10289C0001D0FFF78BFF08BD00F1080343604FF038
:1028AC00FF328260C360036100230360704700BF86
:1028BC0000230361704700BF43684B609A688A60CD
:1028CC009A6851609960086103680133036070472E
:1028DC0003694268816891608268416851605A68F6
:1028EC00824201D182685A60002202611868013864
:1028FC00186070470A4B1B681B680BB9012300E07A
:10290C00002323B14FF0FF32064B1A607047044B83
:10291C001B68DB68DB685A68024B1A60704700BFA3
:10292C00700D00202C0E002038B50C4619B9800013
:10293C00FFF7FEFD044654B15420FFF7F9FD0546A0
:10294C0008B1046304E02046FFF75CFE00E00025BC
:10295C00284638BD10B50446006BFFF753FE2046E1
:10296C00FFF750FE10BD00BF70B50446164600239D
:10297C0006E0CD5CE01880F83450C85C10B101332F
:10298C000F2BF6D9002384F84330062E00D90626E7
:10299C00E66266640025A564201DFFF789FF04F13B
:1029AC001800FFF785FF2461C6F10706A661646273
:1029BC00E56484F8505070BD38B5002406E014204E
:1029CC000E4B00FB0430FFF767FF0134062CF6D9E1
:1029DC000B4D2846FFF760FF0A4C2046FFF75CFFC3
:1029EC000948FFF759FF0948FFF756FF0848FFF75A
:1029FC0053FF084B1D60084B1C6038BD940D002024
:102A0C00540E0020680E00203C0E00207C0D00208F
:102A1C007C0E0020700D0020380E00202DE9F04FA8
:102A2C0083B08B46164699460C9DDDF83480824661
:102A3C0010B9FFF753FEFEE7062D02D9FFF74EFE45
:102A4C00FEE710460E99FFF76FFF044600284CD0A6
:102A5C00036B06F18047013F03EB870727F007075D
:102A6C00009659462A460F9BFFF77EFF3846514683
:102A7C004A46FFF705FE2060B8F1000F01D0C8F8F8
:102A8C000040FFF741FE224B1A6801321A60214BBD
:102A9C001B6843B91F4B1C601D4B1B68012B0CD1D1
:102AAC00FFF78AFF09E01C4B1B6833B9194B1B68F5
:102ABC00DB6AAB4201D8174B1C60184B1A68013209
:102ACC001A60E36A012606FA03F0154A11680143FD
:102ADC00116003EB83039B0012481844211DFFF780
:102AEC00EBFEFFF72FFE344601E04FF0FF34012CD4
:102AFC0009D1094B1B6833B1064B1B68DB6AAB422F
:102B0C0001D2FFF7DFFD204603B0BDE8F08F00BF18
:102B1C00240E0020280E0020740D0020500E0020E2
:102B2C00900E0020940D002000B585B0002300937A
:102B3C000193029303930E480E498022FFF76EFF18
:102B4C0001280ED1FFF7CAFD4FF0FF320A4B1A6075
:102B5C0001220A4B1A600022094B1A60FFF74AFE49
:102B6C0003E010B9FFF7BAFDFEE705B05DF804FB12
:102B7C00E92D0008183900082C0E0020740D0020D7
:102B8C00340E0020024B1A6801321A60704700BFE5
:102B9C00200E0020F8B53A4B1B68002B63D1394B43
:102BAC001A6801321A601E6896B9374B1B681B688D
:102BBC0013B1FFF793FDFEE7334A1168334B1868E6
:102BCC0010601960324B1A6801321A60FFF792FEDE
:102BDC00304B1B689E4203D2002439E0012400E0F4
:102BEC000024294B1B681B680BB9012300E0002350
:102BFC0023B14FF0FF32274B1A6029E0224B1B68A0
:102C0C00DB68DD686B689E4202D2224A13601FE0CB
:102C1C002F1D3846FFF75CFEAB6A1BB105F118009F
:102C2C00FFF756FEEB6A012098401B4A11680143DE
:102C3C00116003EB83039B00184818443946FFF7D7
:102C4C003BFEEA6A164B1B68DB6A9A42C6D2C8E79F
:102C5C00134B1B68DB6A03EB83039B000F4AD358AF
:102C6C00012B06D806E00F4B1A6801321A600024BB
:102C7C0000E001240C4B1B6803B101242046F8BD75
:102C8C00200E0020340E0020700D0020380E002085
:102C9C00300E00202C0E0020900E0020940D0020F1
:102CAC00280E0020900D0020940E002038B52E4BDD
:102CBC001B6813B9FFF712FDFEE7FFF725FD2A4B42
:102CCC001A68013A1A601B68002B45D1274B1B6808
:102CDC0023BB002443E0264BDB68DC6804F11800BE
:102CEC00FFF7F6FD251D2846FFF7F2FDE36A0120EC
:102CFC009840204A11680143116003EB83039B0049
:102D0C001D4818442946FFF7D7FDE26A1B4B1B6888
:102D1C00DB6A9A4202D30122194B1A60144B1B68CE
:102D2C00002BD8D1174B1B6853B90DE0FFF732FFBE
:102D3C0010B10122124B1A60124B1A68013A1A6038
:102D4C00104B1B68002BF1D10D4B1B68012B05D1CF
:102D5C00FFF7B8FC012402E0002400E00024FFF798
:102D6C00F1FC204638BD00BF200E0020240E0020B0
:102D7C003C0E0020900E0020940D0020280E002008
:102D8C00940E0020900D002010B51BE0FFF7FAFE0A
:102D9C000F4B1C68FFF78AFFA4B1FFF7B5FC0C4B77
:102DAC00DB68DC68201DFFF793FD0A4B1A68013ABB
:102DBC001A60094B1A68013A1A60FFF7C3FC2046E7
:102DCC00FFF7C8FD044B1B68002BDFD110BD00BF03
:102DDC007C0D0020240E0020780D002008B5FFF794
:102DEC00D3FF034B1B68012BF9D9FFF76BFCF6E7FC
:102DFC00940D002008B5164B1B681BB10122154B16
:102E0C001A6008BD0022134B1A60134B1B68B3FAEF
:102E1C0083F3DBB2C3F11F0303EB830292000F4970
:102E2C008A5812B9FFF75AFCFEE703EB83039B00A9
:102E3C000A4A13445A6852685A6003F108018A42DC
:102E4C0001D152685A605B68DA68054B1A6008BD9C
:102E5C00200E0020940E0020900E0020940D0020D7
:102E6C00280E0020054B1B6823B1054B1B681BB9B2
:102E7C00022070470120704700207047740D00201D
:102E8C00200E0020014B1868704700BF7400002012
:102E9C0010B50023934203D0CC5CC4540133F9E742
:102EAC0010BD00000EB400B54FF402719CB0ADF82B
:102EBC0014106FF00041049107914FF6FF711DAB98
:102ECC00ADF81610084953F8042B029006900868C8
:102EDC0002A9019300F06EF8029B00221A701CB03C
:102EEC005DF804EB03B0704774000020034613F840
:102EFC00012B002AFBD1181A013870472DE9F04735
:102F0C008D688146AB420C4692461F4643D38B8953
:102F1C0013F4906F3DD0266809690222C1EB0608B4
:102F2C00666906EB460696FBF2F608F101023A4496
:102F3C00964238BF16465B050FD5314600F054FB60
:102F4C00054698B121694246FFF7A2FFA38923F4F5
:102F5C00906343F08003A38113E0324600F098FBAA
:102F6C00054670B94846216900F0FAFA0C23C9F8F5
:102F7C000030A3894FF0FF3043F04003A381BDE83C
:102F8C00F087256166614544C8EB06062560A6609E
:102F9C003D46AF4200D23D462A462068514600F0DD
:102FAC00C3FAA36800205B1BA36023681D44256043
:102FBC00BDE8F0872DE9F0439DB003938B8907465C
:102FCC001C060D4616460CD50B6953B9402100F072
:102FDC000BFB2860286110B90C233B60C7E0402331
:102FEC006B610023099320238DF8293030238DF851
:102FFC002A3033461C4613F8012B1AB9B4EB0609D8
:10300C000FD002E0252AF5D1F8E73846294632469A
:10301C004B46FFF773FF013000F0A480099B4B4433
:10302C0009932378002B00F09D8000234FF0FF3292
:10303C0004930793059206938DF853301A9304F179
:10304C0001094D4E4C4630462178052200F05EFABF
:10305C0009F10109049B28B1861B0120B0400343F0
:10306C000493EEE7D90644BF20228DF853201A07AB
:10307C0044BF2B228DF8532022782A2A02D0079B9A
:10308C0021460EE0039A111D12680391002A01DB00
:10309C00079204E0524243F0020307920493013476
:1030AC000AE00C4622780131303A092A03D80A206A
:1030BC0000FB0323F5E7079323782E2B19D16378B4
:1030CC002A2B09D1039B02341A1D1B680392002B77
:1030DC00B8BF4FF0FF330BE0611C00230C46227885
:1030EC000131303A092A03D80A2000FB0323F5E703
:1030FC000593224E21783046032200F007FA30B1B6
:10310C00861B4020B040049B013403430493217878
:10311C001B480622661C8DF8281000F0F7F988B1C0
:10312C00184B33B9039B073323F00703083303937E
:10313C0014E003AB0093384604A92A46124BAFF3B4
:10314C00008007E003AB0093384604A92A460E4BD7
:10315C0000F08EF8B0F1FF3F804603D0099B43444A
:10316C00099346E7AB895B0601D4099801E04FF05F
:10317C00FF301DB0BDE8F083223900082839000863
:10318C002C39000800000000092F00082DE9F84335
:10319C0015461F468A680B6906469A42A8BF134615
:1031AC002B6091F843200C46DDF820800AB10133E6
:1031BC002B602368990602D52B6802332B60236899
:1031CC0013F006091DD094F843302268003318BF61
:1031DC00012392061FD5E118302081F843005A1CB8
:1031EC0094F845102244023382F8431013E0304621
:1031FC00394604F119020123C047013007D009F107
:10320C000109E2682B68D31A9945F0DBDBE74FF034
:10321C00FF30BDE8F8833046394604F14302C0471D
:10322C000130F4D023682A6803F00603E168042B0C
:10323C0008BFC2EB01052369A2680CBF25EAE5753E
:10324C0000259A42C4BFC3EB0203ED184FF00009EE
:10325C00A9450ADA3046394604F11A020123C0475F
:10326C000130D4D009F10109F2E70020BDE8F88360
:10327C002DE9FF470E7E80466E2E0C4691469A46EF
:10328C000C9D01F1430000F0A58011D8632E22D0D3
:10329C0009D8002E00F0AF80582E40F0BF8081F886
:1032AC0045607B4A4FE0642E1ED0692E1CD0B5E0E1
:1032BC00732E00F0A48009D86F2E2BD0702E40F006
:1032CC00AD800B6843F020030B6038E0752E21D0E5
:1032DC00782E34D0A2E02B6801F142071A1D1B682E
:1032EC002A6081F842309DE022682B6812F0800F32
:1032FC0003D01A1D2A601D6805E05106F9D51A1D68
:10330C002A60B3F90050002D39DA2D236D4284F870
:10331C00433034E022682B6812F0800F03D01A1D62
:10332C002A601D6804E05206F9D51A1D2A601D8812
:10333C00237E574A6F2B14BF0A2308231BE07823E4
:10334C00544A84F845302368296813F0800F01F142
:10335C0004062E6001D00D6802E05F06FBD50D88D7
:10336C00DE0744BF43F0200323601DB9236823F01C
:10337C00200323601023002184F8431001E0444A09
:10338C000A236668002EA66003DB216821F0040185
:10339C00216005B96EB104F14201B5FBF3F603FBF4
:1033AC001655555D0F4601F801593546002EF4D1DE
:1033BC0000E00746082B0AD12368DD0707D56268B1
:1033CC0023699A4203DC302307F8013C013FC01B00
:1033DC0020612CE009682B6811F0800F626904D021
:1033EC00191D29601B681A6005E04906F8D5191DDE
:1033FC0029601B681A8000232361074617E02B689D
:10340C001A1D2A601F683846FFF770FD636820613B
:10341C00984288BF23612369636005E004F1420789
:10342C0084F8426001232361002384F84330CDF8F3
:10343C0000A04046214603AA4B46FFF7A7FE0130E9
:10344C0002D14FF0FF301FE0404649463A4623690F
:10345C00D0470130F5D023689B0705D4E068039B67
:10346C009842B8BF18460FE00025E268039BD31AB8
:10347C009D42F3DA4046494604F119020123D04734
:10348C000130DED00135F0E704B0BDE8F08700BFB5
:10349C00333900084439000830B5141E9BB005467A
:1034AC0004DA8B2303604FF0FF301CE04FF4027200
:1034BC0000910491ADF80C2014BF04F1FF312146AA
:1034CC004FF6FF7202910591ADF80E2069461A462F
:1034DC001E9BFFF76FFD431CBCBF8B232B6014B1ED
:1034EC00009B00221A701BB030BD000073B5009316
:1034FC00054B06460D461446186831462A462346A7
:10350C00FFF7CAFF02B070BD7400002010B5C9B23D
:10351C0002449042034605D01C7801308C42F8D10D
:10352C00184610BD002010BD814270B501D3002398
:10353C000EE08C18A042FAD28518134613F1FF3313
:10354C0005D351426618F65C2944CE54F6E770BD9B
:10355C00934203D0CC5CC4540133F9E770BD000036
:10356C0030B500293CD051F8042C0B1F1D49002A02
:10357C00B8BF9B180A680C4612B95A600B6030BD74
:10358C0093420DD219685818904203D15A581144DD
:10359C00426819605A60236030BD994203D80A46CC
:1035AC0051680029F9D1146815199D420AD11B687C
:1035BC002344D0188842136012D108680344136066
:1035CC004B680CE002D90C23036030BD18681C1842
:1035DC008C4203D10C6849682044186059605360D0
:1035EC0030BD00BF9C0E002070B5CD1C25F003052E
:1035FC0008350C2D38BF0C25002D06463FDB8D42BF
:10360C003DD3214B1C6818462146A1B10B685B1BAE
:10361C000ED40B2B03D90B60CC18CD501FE08C4271
:10362C0002D1626802601AE04B6863600C4616E0D7
:10363C000C464968E9E7154C23681BB9304600F085
:10364C004DF820602946304600F048F8431C0146EE
:10365C0015D0C41C24F0030484420AD1256004F163
:10366C000B00231D20F00700C31A0BD05A42E25066
:10367C0070BD3046611A00F031F80130EED10C23E8
:10368C003360002070BD00BF9C0E0020980E0020FF
:10369C00F8B5064614460D4621B91146BDE8F8406A
:1036AC00FFF7A2BF1AB9FFF75BFF2046F8BD00F089
:1036BC0025F8A0420ED230462146FFF795FF07466B
:1036CC0050B129462246FFF7E3FB30462946FFF767
:1036DC0047FF01E02846F8BD3846F8BD38B5064C22
:1036EC000023054608462360FEF7ACF9431C02D1C3
:1036FC00236803B12B6038BDA00E002051F8040CD8
:10370C00002802DA04390B581844043870470000BA
:10371C0002030405060708090A0B0C0D0E0F101006
:10372C0001020000537461636B206672616D653A2F
:10373C000A000000205230203D2020253038580A45
:10374C0000000000205231203D2020253038580A3E
:10375C0000000000205232203D2020253038580A2D
:10376C0000000000205233203D2020253038580A1C
:10377C000000000020523132203D20253038580AFC
:10378C0000000000204C52203D2020253038580AE3
:10379C0000000000205043203D2020253038580ADE
:1037AC000000000020505352203D20253038580A8C
:1037BC00000000004653522F4641523A0A000000C6
:1037CC002043465352203D2020253038580A000013
:1037DC002048465352203D2020253038580A0000FE
:1037EC002044465352203D2020253038580A0000F2
:1037FC002041465352203D2020253038580A0000E5
:10380C00204D4D464152203D20253038580A0000AD
:10381C002042464152203D2020253038580A0000D5
:10382C004D6973630A000000204C522F4558435FCA
:10383C0052455455524E3D20253038580A00000050
:10384C005B486172644661756C745D0A000000002F
:10385C005B4275734661756C745D0A005B557361F0
:10386C0067654661756C745D0A000000000000001D
:10387C000000000001020304060708090000000014
:10388C0001020304256900004661696C65642074BB
:10389C006F20726563656976650000004661696C2E
:1038AC00656420746F207472616E736D69740000AE
:1038BC000A0D00005375636365737366756C207431
:1038CC0072616E736D6974002E2E2F7372632F6D7F
:1038DC0061696E2E6300000043616E20706F6C6C2A
:1038EC00696E67206F6B61790000000043616E2088
:1038FC006E6F7420706F6C6C696E67206F6B617982
:10390C00000000005461736B0000000049444C45FA
:10391C00000000004300232D302B2000686C4C006D
:10392C0065666745464700303132333435363738B3
:10393C003941424344454600303132333435363711
:09394C00383961626364656600AC
:10395800785634128C0000200000000000A24A04AF
:10396800AAAAAAAA000000000000000000000000A7
:10397800000000000000000000000000000000003F
:1039880000000000203900080000000000000000CE
:10399800000000000000000000000000000000001F
:1039A800000000000000000000000000000000000F
:1039B80000000000000000000000000000000000FF
:0C39C8000000000014000020325476982B
:040000050800010DE1
:00000001FF
